:020000040800F2
:10000000E8080020B501000881320008512B0008E3
:100010007D32000871020008E93500080000000088
:100020000000000000000000000000006D33000828
:100030002D03000800000000853200082934000864
:10004000CF010008CF010008CF010008CF01000850
:10005000CF010008CF010008CF010008CF01000840
:10006000CF010008CF010008CF010008CF01000830
:10007000CF010008CF010008CF010008CF01000820
:10008000CF010008CF010008CF010008CF01000810
:10009000CF010008CF010008CF010008CF01000800
:1000A000CF010008CF010008CF010008CF010008F0
:1000B000B9340008CF010008CF010008CF010008C3
:1000C000CF010008CF010008CF010008CF010008D0
:1000D000CF010008D1350008DD350008CF01000848
:1000E000CF010008CF010008CF01000800F002F89E
:1000F00000F050F814A696E8000CB244B344DA4578
:1001000001D100F047F8BAE80F000FA696E83000DA
:10011000A5EB040504EB0607AAEB0704A7F101070A
:100120004FEA15154FEA3414A4F10104AC4201D38F
:1001300000F030F813F0010F18BFFB1A43F0010371
:1001400000F001F8DBE71847486100006861000033
:10015000103A24BF78C878C1FAD8520724BF30C8F3
:1001600030C144BF04680C60704700007047000055
:100170000023002400250026103A28BF78C1FBD8B0
:10018000520728BF30C148BF0B6070471FB51FBD65
:1001900010B510BD00F031F81146FFF7F7FF03F07E
:1001A00025FA00F04FF803B4FFF7F2FF03BC00F0AC
:1001B00057F800000948804709480047FEE7FEE776
:1001C000FEE7FEE7FEE7FEE7FEE7FEE7FEE7FEE707
:1001D00004480549054A064B70470000B53400083D
:1001E000ED000008E8020020E8080020E8040020F4
:1001F000E8040020704770477047754600F02CF8FF
:10020000AE4605006946534620F00700854618B003
:1002100020B5FFF7DDFFBDE820404FF000064FF0AE
:1002200000074FF000084FF0000BAC46ACE8C009E7
:10023000ACE8C009ACE8C009ACE8C00921F007018E
:100240008D46704710B50446AFF300802046BDE8E8
:100250001040FFF7A8BF00000048704728000020AA
:1002600001491820ABBEFEE72600020070470000DF
:10027000FEE700002DE9F04784B040F60008C4F224
:1002800001088A4606464046102100224FF0000928
:1002900000F0BCFA802040F2D40540EA4600C2F2E9
:1002A00000058DF8090064240DF1090102AA284611
:1002B0000123009400F008FF0DF10B010DF10A027B
:1002C000284601238DF80B90009400F0FDFE9DF868
:1002D0000A7040461021012200F098FA4046102191
:1002E000002227EA0A0700F091FA7E2000EA460081
:1002F0008DF80D000DF10D0103AA2846012300948D
:1003000000F0E2FE0DF10F010DF10E02284601236F
:100310008DF80F70009400F0D7FE404610210122A6
:1003200000F074FA04B0BDE8F087000070470000E8
:10033000F0B581B040F60004C4F2010420464FF449
:10034000006100F05DFA00284CD040F2042704F56B
:1003500080650026C2F2000707E000BF20464FF488
:10036000006100F04DFA00283CD028460821002208
:1003700000F04CFA20464FF40041002200F046FA0B
:1003800028464FF48071012200F040FA3868466236
:10039000416A09097C290BD8416A09097C2907D8D7
:1003A000416A09097C2903D8416AB1F5FA6FEFD394
:1003B00028464FF48071002200F028FA386846621F
:1003C000416A09097C29C9D8416A09097C29C5D82B
:1003D000416A09097C29C1D8416AB1F5FA6FEFD3A6
:1003E000BCE700BF20464FF40041012200F00EFAA6
:1003F00040F29000C2F200000021416201B0F0BD65
:10040000F0B581B040F60044C4F20104A4F5806563
:1004100028464FF4805100F0F3F9002848D040F20C
:1004200004270026C2F2000706E000BF28464FF46A
:10043000805100F0E5F9D8B320464021012200F0B8
:10044000E5F920462021002200F0E0F92046802135
:10045000012200F0DBF93868466200BF416A0909F1
:100460007C290BD8416A09097C2907D8416A090906
:100470007C2903D8416AB1F5FA6FEFD32046802179
:10048000002200F0C3F93868466200BF416A0909DA
:100490007C29CBD8416A09097C29C7D8416A090956
:1004A0007C29C3D8416AB1F5FA6FEFD3BEE700BF2C
:1004B00020462021012200F0A9F940F29000C2F26A
:1004C00000000021816201B0F0BD0000014690F8FB
:1004D0002100022816D10868D1E90FC3026822F072
:1004E0000E020260026822F001020260012000FA9E
:1004F00003F2CCF8042081F821000020002281F8CA
:1005000020207047042088630120002281F82020E9
:100510007047000090F82110022923D10268116869
:1005200021F00E0111602F211368C4F202018A42EA
:1005300040F20401C4F2020123F00103136015DD4F
:100540003023C4F202039A421CD04423C4F20203B3
:100550009A421BD05823C4F202039A421CD14FF492
:10056000803321E004218163012070470823C4F215
:1005700002039A420ED01C23C4F202039A420BD10A
:10058000102311E04FF480730EE000BF4FF480534E
:100590000AE000BF012307E001F1680C4FF080730F
:1005A000624508BF4FF480130B60012180F82110D1
:1005B000426B002180F8201022B180B590470021C5
:1005C000BDE8804008467047B0B5044600F024F905
:1005D000054640F21C00C2F200000078611C18BF02
:1005E000044400BF00F018F9401BA042FAD3B0BD8C
:1005F0002DE9F04F82B00E68002E00F0FD8041F230
:100600000042C4F20102042340F2004E904208BFAF
:1006100003234FF6FF7CC4F2010E00930024012354
:10062000C1F2100C4FF0000A4FF0000944E000BF87
:10063000012704F00C030F229A402BEA020207FA6A
:1006400003F34FEA9A051A4346F825204E6840F214
:100650000C45F202DEF8082054BF22EA080242EA02
:100660000802C4F20105CEF808202A68B30254BF7C
:1006700022EA080242EA08022A60B303DEF80420F4
:1006800054BF22EA080242EA0802F303CEF804202B
:10069000DEF800204FF0010354BF22EA080242EACC
:1006A0000802CEF800200E680AF1010A36FA0AF2B2
:1006B00004F1040400F0A08003FA0AFB16EA0B0818
:1006C000F1D04E68664511DC122E55D8DFE806F0F1
:1006D000340A444854545454545454545454545460
:1006E000544C5000D1F80C9046E000BF4FF6FF721A
:1006F000C1F2210296420FDC0022C1F211029642A1
:100700001AD00022C1F21202964215D00022C1F284
:100710002102964210D02FE00022C1F2220296421E
:100720000AD00022C1F23102964205D00022C1F265
:100730003202964220D100BF8A684AB1012A14BF12
:10074000C0F814B0C0F810B04FF0080914E000BFB2
:100750004FF0040910E000BFCA6802F108090BE07D
:100760004FF0000908E000BFCA6802F1040903E085
:10077000CA6802F10C0900BF22460646B8F5807F20
:1007800024BF203A043637680F25954027EA05052F
:1007900009FA02F22A433260CA79D2067FF583AFA2
:1007A00041F21803C4F202031A68AEF57E7642F0F5
:1007B00001021A601A6802F001020192019A2AF0FD
:1007C000030256F802B040F60002C4F20102904261
:1007D00010D040F60042C4F2010290423FF428AF2C
:1007E00041F20002C4F20102009F904208BF0227BA
:1007F0001FE700BF00271CE702B0BDE8F08F000034
:100800008068084018BF012070470000002A08BF18
:10081000090401617047000040F2E020C2F20000CC
:100820000068704740F21C0040F2E021C2F2000074
:10083000C2F2000100780A681044086070470000A6
:1008400080B542F20000C4F20200016841F01001DC
:100850000160032000F08CF80F2000F005F800F094
:1008600027F8002080BD000070B540F21C06C2F2DF
:10087000000640F224013278C2F200014FF47A738C
:100880000968B3FBF2F20446B1FBF2F1084600F04E
:1008900085FD0F2C4FF0010508D838B94FF0FF3017
:1008A00021460022002500F037F87460284670BD0C
:1008B00082B041F21800C4F202000168022241F045
:1008C00001010160016801F0010101910199416894
:1008D00041F080514160406800F0805000900098E5
:1008E0000420C4F20100016862F31A61016002B0E1
:1008F00070470000002848BF704700F01F01012228
:1009000002FA01F11C2202EAD0004EF20012CEF2ED
:10091000000281507047000010B54EF60C5CCEF21C
:10092000000CDCF80030C3F3022E8EF00704042C18
:1009300028BF0424BEF103034FF0FF3E0EFA04F477
:1009400038BF0023A14399400EFA03F39A431143A1
:1009500000F00F0200F160430901043A03F564431B
:100960006244002848BF02F10C03197010BD00005A
:100970004EF60C51CEF200010A684FF6FF031A4002
:1009800060F30A2242F0806040F0FD70086070471A
:10099000002804BF012070472DE9F04381B042F2E6
:1009A0000008C4F202080446D8F800000D4600F022
:1009B000070088420CD2D8F8000020F00700284336
:1009C000C8F80000D8F8000000F00700A8426CD179
:1009D000206841F204098107C4F2020917D54107D2
:1009E00005D5D9F8001041F4E061C9F800100107FD
:1009F00005D5D9F8001041F46051C9F80010D9F8B4
:100A00000010A26821F0F0011143C9F80010C007DE
:100A100042D1D8F8000000F00700A8420CD9D8F85D
:100A2000000020F007002843C8F80000D8F80000B4
:100A300000F00700A84238D12068410707D5D9F84F
:100A40000010E26821F4E0611143C9F800100007CA
:100A500008D5D9F80000216920F4605040EAC100AF
:100A6000C9F80000D9F8002002F00C00082841F273
:100A70000020C0F27A0051D146F28023C2F38341B4
:100A8000C0F60003595CD2033CD440F60010C0F21B
:100A90003D00484342E000BF606802280AD00128B8
:100AA0002AD159F8041C890308D4012001B0BDE8FB
:100AB000F08300BF59F8041C8901F6D5D9F800105D
:100AC00021F003010843C9F80000FFF7A5FE064620
:100AD00041F28837D9F80000616800F00C00B0EBF3
:100AE000810F96D0FFF798FE801BB842F2D9032001
:100AF00001B0BDE8F08300BF59F8041C8907D4D5C4
:100B0000DCE700BFD9F8002046F27E23C2F3404262
:100B1000C0F600039A5C4843B0FBF2F0D9F800102D
:100B200046F26622C1F30311C0F60002515C40F2A6
:100B3000240220FA01F140F22000C2F20000006815
:100B4000C2F200021160FFF78FFE002001B0BDE885
:100B5000F083000040F2240041F20401C2F20000E0
:100B6000C4F202010068096846F27622C1F302214C
:100B7000C0F60002515CC8407047000040F22400FB
:100B800041F20401C2F20000C4F2020100680968E7
:100B900046F27622C1F3C221C0F60002515CC84081
:100BA00070470000002804BF012070472DE9F04184
:100BB00082B00446007841F20006C007C4F2020683
:100BC0000CD0706800F00C00042840F08180306880
:100BD000800303D56068002800F04E8120788007EC
:100BE0001BD5706810F00C0F09D0706800F00C0075
:100BF000082840F08B807068C00300F1878030685F
:100C0000800703D52069012840F03681306861698A
:100C100020F0F80040EAC10030602078000713D4CB
:100C2000207840072CD4E569002D00F02081706801
:100C300000F00C00082840F0AF80012D40F00C813E
:100C4000012002B0BDE8F081A069002800F08C808E
:100C50000020C4F242200121C0F88014FFF7DCFD1F
:100C6000054600BF706A800700F1BA80FFF7D4FD27
:100C7000401B0228F6D9032002B0BDE8F08100BF76
:100C8000F0695FEAC00808D4F06940F08050F06174
:100C9000F06900F080500090009847F20007C4F21D
:100CA00000073868C0054DD4386840F4807038605B
:100CB000FFF7B2FD054600BF3868C00542D4FFF714
:100CC000ABFD401B6428F7D9032002B0BDE8F081DA
:100CD000706800F00C00082803D17068C0033FF56D
:100CE00076AF6068002800F00981B0F5A02F00F011
:100CF0001D81B0F5803F00F01D81306820F4803008
:100D00003060306820F4802017E100BF206900289F
:100D100040F20000C4F2422000F08C80012101600A
:100D2000FFF77AFD054600BF306880073FF56EAFDC
:100D3000FFF772FD401B0228F6D9032002B0BDE880
:100D4000F08100BFE068002800F09A80052800F0DC
:100D5000B180012800F0B280306A20F001003062DA
:100D6000306A20F00400ACE00020C4F242200021F0
:100D7000C0F88014FFF750FD054600BF706A800779
:100D80007FF54EAFFFF748FD401B0228F6D9032040
:100D900002B0BDE8F08100BF0027C4F24227002066
:100DA0003866FFF739FD022D05460DD13068800108
:100DB00040F1D680FFF730FD401B02284FF00300C2
:100DC000F4D902B0BDE8F081306880014FD5FFF75B
:100DD00023FD401B02284FF00300F5D9F1E700BFC7
:100DE00040F22400C2F20000006844F6D351C1F280
:100DF0006201A0FB0101480A019000BF00BF0198F9
:100E0000411E002801913FF40BAF00BF0198411E25
:100E1000002801913FF404AF00BF0198411E002853
:100E200001913FF4FDAE00BF0198411E00280191E1
:100E3000E4D1F5E600210160FFF7EEFC054600BFB6
:100E4000306880077FF5E9AEFFF7E6FC401B02281B
:100E50004FF00300F4D9B4E77068216A00F48032DF
:100E60008A4209D1616A00F47010884204D10020DE
:100E700002B0BDE8F08100BF012002B0BDE8F08102
:100E8000306A20F001003062306A20F004003062E5
:100E9000FFF7C2FC054641F2883700BF306A800781
:100EA00022D5FFF7B9FC401BB8424FF00300F5D93B
:100EB00087E700BF306A40F004003062306A40F0DB
:100EC00001003062FFF7A8FC054641F2883700BFF9
:100ED000306A800708D4FFF79FFC401BB842F7D95F
:100EE000032002B0BDE8F081B8F1000F3FF59BAEE2
:100EF000F06920F08050F06195E600BF306820F482
:100F000080303060306820F480203060FFF784FC4F
:100F1000054600BF306880037FF560AEFFF77CFCBC
:100F2000401B64284FF00300F4D94AE7306840F4CE
:100F300080203060306840F480303060FFF76CFC17
:100F4000054600BF306880033FF548AEFFF764FCFC
:100F5000401B6428F6D9032002B0BDE8F08100BF31
:100F6000206AB0F5803F05D17168A26821F4003194
:100F7000114371607168626A21F47411114308436E
:100F8000706001203866FFF747FC04463068800136
:100F90003FF56DAFFFF740FC001B02284FF0030048
:100FA000F4D90EE770B538B10446406A30B100207C
:100FB000206104F1140007E0012070BD6068B0F505
:100FC000827F03D004F11C00002101600026A6628C
:100FD00094F8510020B9204684F8506000F038F8A9
:100FE000022084F8510094E8071001F4827103682C
:100FF00002F4044223F040030360236911440CF41B
:101000000062114403F002026369114403F001021B
:10101000A369E569114403F40072114405F0380234
:10102000256A114405F08002A56A114305F40052B7
:1010300011430160042101EA13414160C16921F4B7
:101040000061C1610120666584F85100304670BDC1
:1010500070B586B040F60004C4F20104006804F5DF
:10106000205100268842049602D006B070BD00BF11
:1010700041F21800C4F20200016802AD41F480514F
:101080000160016801F4805101910199016841F00A
:10109000040101600068294600F0040001900198F5
:1010A000A020029002200390032005902046FFF725
:1010B0009FFA4020CDE90206204629460496FFF714
:1010C00097FA06B070BD00002DE9F04381B00446E8
:1010D00090F85000012803D1022001B0BDE8F08350
:1010E00001201E4615460F4684F85000FFF794FB7A
:1010F00094F85110814601290CD1002F4FF00100C6
:1011000018BF002D14D1002184F8501001B0BDE8A3
:10111000F08300BF6068B0F5827F40F099800429B9
:101120004FF00200EFD1A1680029E6D0EBE700BF45
:10113000002EE8D094F85100002104281CBF05209F
:1011400084F851006165A563E687A6872763E68674
:101150002068A686216461640168490603D4016899
:1011600041F0400101606168731EE268B1FA81F1EB
:10117000B3FA83F3DDF8208049095B09B2F5006F0B
:1011800041EA03016CD131B137F8021BC16027631A
:10119000E08E0138E086012518F1010031D101E02F
:1011A000FFF73AFBE08E18B9E08F002800F0C0800E
:1011B0002068816889070CD5E18E51B1012D08D1D5
:1011C000216B002531F8022BC2602163E18E0139C9
:1011D000E1868168C907E3D0E18F0029E0D0C068CB
:1011E000A16B012521F8020BA163E08F0138E08794
:1011F000D6E700BFFFF710FBA0EB0900404580F0E9
:10120000AB80E08E18B9E08F002800F09180206854
:10121000816889070CD5E18E51B1012D08D1216B70
:10122000002531F8022BC2602163E18E0139E1868D
:101230008168C907DED0E18F0029DBD0C068A16BCF
:10124000012521F8020BA163E08F0138E087D1E787
:101250000220002184F8501001B0BDE8F08300BFE7
:1012600039B139780173206B01302063E08E013889
:10127000E086012518F1010032D101E0FFF7CCFA38
:10128000E08E10B9E08F002852D02068816889076D
:101290000ED5E18E61B1012D0AD1216B00250978AF
:1012A0000173216B206801312163E18E0139E186F0
:1012B0008168C907E2D0E18F0029DFD0C068A16B47
:1012C00001250870A06B0130A063E08F0138E08732
:1012D000D4E700BFFFF7A0FAA0EB090040453BD2DE
:1012E000E08E08B9E08F18B32068816889070ED5B1
:1012F000E18E61B1012D0AD1216B002509780173BE
:10130000216B206801312163E18E0139E18681681A
:10131000C907DFD0E18F0029DCD0C068A16B0125AF
:101320000870A06B0130A063E08F0138E087D1E73F
:101330002046802142464B4601F0A6FFB0B1606DC9
:1013400040F020006065202060650120002184F8C5
:10135000501001B0BDE8F083012084F85100032053
:10136000002184F8501001B0BDE8F083A06838B9BE
:10137000002000902068C16800918068009000986B
:10138000606D00284FF0010004BF84F85100002078
:10139000002184F8501001B0BDE8F083411E002008
:1013A000B0EB116F1CBF012070474EF21002CEF25D
:1013B000000251604EF62351CEF20001F0230B7073
:1013C000072190601160704770470000704700006F
:1013D00090F83C20012A04BF02207047B0B501F10B
:1013E00008053CCDD1E900CE23F47C5322F47052A1
:1013F0001A432EF4F0431A432CF4E0431A4324F426
:10140000C0431A432A43C96922F480420368114346
:101410005964002180F83C10BDE8B0400846704790
:1014200090F83C20012A4FF0020236D010B580F827
:101430003D200268D2F804E0D2F808C00C682EF013
:101440007003234340F2FF74C4F20004A2425360CD
:101450000ADCB2F1804F13D040F20043C4F2000323
:101460009A420DD011E000BF42F60043C4F20103DE
:101470009A4205D040F60003C4F200039A4204D118
:1014800049682CF08003194391600121002280F803
:101490003D1080F83C20BDE8104010467047000029
:1014A000002804BF0120704710B5044690F83D00A5
:1014B00028B9002084F83C00204600F067F802209C
:1014C00084F83D00206840F2FF730268C4F2000314
:1014D00042F6004C9842C4F2010C15DCB0F1804F8A
:1014E0001AD040F20041C4F20001884214D0984260
:1014F00018DCB0F1804F1DD040F20041C4F2000171
:10150000884217D01AE000BF604505D040F60001C0
:10151000C4F200018842EAD1A16822F070020A43B5
:101520009842E6DD604505D040F60001C4F20001B6
:10153000884203D1216922F440720A43A36922F050
:101540008001D4F804E0E268194360450160C2629A
:10155000C0F828E002D16169CCF830100121416166
:10156000002084F8461084F83E1084F83F1084F878
:10157000401084F8411084F8421084F8431084F835
:10158000441084F8451084F83D1010BD006840F602
:101590000001C4F20001884218BF704781B041F2D7
:1015A0001C00C4F20200016841F0040101600068FF
:1015B00000F004000090009801B0704790F83D10D2
:1015C00001291CBF01207047022180F83D100068EE
:1015D00040F2FF71C4F20001884209DCB0F1804F93
:1015E00012D040F20041C4F2000188420CD012E057
:1015F00042F60041C4F20101884205D040F60001E4
:10160000C4F20001884206D1816801F00701062971
:1016100004BF00207047016841F001010160002013
:101620007047000090F83C20012A4FF0020200F0C1
:10163000C58080B580F83D20D0F800C04FF67772A5
:10164000DCF8083023EA0202CCF808200B684F2BA4
:1016500028DC1F2B44DD202B45D0302B43D0402BE2
:1016600040F0AE80D1F804E0C968DCF82030DCF846
:10167000202022F00102CCF82020DCF8182022F0F3
:10168000F00242EA011123F00A0242EA0E02CCF80B
:101690001810CCF82020DCF8081041F0470121F0A8
:1016A000300180E06F2B27DDB3F5005F48D0B3F544
:1016B000805F7AD0702B40F08380D1E901E3C96864
:1016C000DCF8082043EA0E0322F47F4243EA0121BA
:1016D0001143CCF80810DCF8081041F0770162E003
:1016E0000BB1102B6CD1DCF8081021F070011943FC
:1016F00041F0070157E000BF502B35D0602B5FD180
:10170000D1F804E0C968DCF82030DCF8202022F0B1
:101710001002CCF82020DCF8182022F4704242EAB3
:10172000013123F0A00242EA0E12CCF81810CCF8D6
:101730002020DCF8081041F0670121F0100132E0B0
:10174000D1E901E3C968DCF8082043EA0E0322F47A
:101750007F4243EA01211143CCF80810DCF808105D
:1017600041F480411FE000BFD1F804E0C968DCF813
:101770002030DCF8202022F00102CCF82020DCF818
:10178000182022F0F00242EA011123F00A0242EA94
:101790000E02CCF81810CCF82020DCF8081041F02C
:1017A000570121F02001CCF808100022012180F817
:1017B0003D10002180F83C10BDE880401046704785
:1017C0000122F3E7002804BF012070472DE9F04F04
:1017D00081B0044690F83D000D4628B9002084F8F9
:1017E0003C00204600F094F8022084F83D00206878
:1017F00044F20702816840F2FF73914381600268FE
:10180000C4F2000342F6004C9842C4F2010C15DC0D
:10181000B0F1804F1AD040F20041C4F2000188427A
:1018200014D0984218DCB0F1804F1DD040F2004136
:10183000C4F20001884217D01AE000BF604505D00D
:1018400040F60001C4F200018842EAD1A16822F00A
:1018500070020A439842E6DD604505D040F600017B
:10186000C4F20001884203D1216922F440720A4384
:10187000A36922F08001D4F804E0E26819436045CE
:101880000160C262C0F828E002D16169CCF8301072
:101890004FF00109C0F814908268D0F818E0D0F831
:1018A00020C0D5E90038D5E9027B43EA020AAB69DA
:1018B0004FF6FF712EEA010E47EA03234FF6FC476D
:1018C000BB43D5E907724BEA0E012E69194341EA81
:1018D000072141EA061141EA02312CF022026B692C
:1018E00042EA080242EA0312C0F808A081610262DB
:1018F00084F8469084F83E9084F83F9084F84290B3
:1019000084F8439084F83D90002001B0BDE8F08F4A
:1019100080B586B001680020B1F1804F059001D0FC
:1019200006B080BD41F21801C4F202014A6842F0DB
:1019300001024A604A6802F001020192019A0A68B3
:1019400042F004020A60096801F004010191019962
:101950000321CDE90210049040F60000C4F201001A
:1019600002A9FEF745FE1C2000210022FEF7D4FF4D
:101970001C20FEF7BFFF06B080BD000080B590F8C8
:101980003E2090F83F3090F842E090F843C00429A0
:101990000AD0F9B9012A4FF0010208BFBEF1010FC8
:1019A00046D0104680BD00BF012B4FF0010208BF9A
:1019B000BCF1010FF5D1022180F83F1080F84310EF
:1019C0000068016A21F010010162016A41F0100112
:1019D00001622AE0012A4FF0010208BF012BE0D189
:1019E000BEF1010FDDD1BCF1010FDAD1022280F886
:1019F0003E2080F83F2080F8422080F84320E1B16B
:101A00000068016A21F001010162016A41F00101EF
:101A10000162016A21F010010162016A41F01001C6
:101A20000162C16841F00201C16004210FE000BF02
:101A3000022180F83E1080F842100068016A21F00F
:101A400001010162016A41F0010101620221C268E3
:101A50001143C1600168002241F00101016010469C
:101A600080BD0000006840F2DC21406AC2F2000143
:101A70000880704710B5016804460869800744BFB4
:101A8000C8685FEA807039D40869400744BFC868F5
:101A90005FEA40703ED40869000744BFC8685FEA47
:101AA000007045D40869C00644BFC8685FEAC060DA
:101AB0004AD40869C0071CBFC8685FEAC07051D12A
:101AC0000869000644BFC8685FEA006052D408692C
:101AD000400644BFC8685FEA406053D40869800686
:101AE00046BFC8685FEA806010BD6FF020022046E4
:101AF0000A61BDE81040FFF769BC00BF6FF002004B
:101B00000861012020778869800743D02046FFF7CD
:101B1000A9FF45E06FF00400086102202077886982
:101B200010F4407F40D02046FFF79CFF42E000BF0A
:101B30006FF00800086104202077C86980073DD055
:101B40002046FFF78FFF3FE06FF01000086108208C
:101B50002077C86910F4407F3AD02046FFF782FF13
:101B60003CE000BF6FF001000861204600F0AEFAD3
:101B70002168A5E76FF0800008612046FFF724FC8C
:101B80002168A4E76FF040000861204600F0A0FA49
:101B90002168A3E7204600F083F8204600F026FAEB
:101BA0002168002020776FE7204600F079F8204672
:101BB00000F01CFA2168002020776CE7204600F036
:101BC0006FF8204600F012FA21680020207769E7BC
:101BD000204600F065F8204600F008FA2168002051
:101BE000207766E780B586B0006840F20041C4F215
:101BF000000188424FF00001CDE90411CDE9021146
:101C000022D042F60041C4F20101884245D141F29E
:101C10001800C4F20200016841F00401016000688C
:101C200002A900F00400019001984FF48070029026
:101C300002200390059040F60000C4F20100FEF778
:101C4000D7FC06B080BD00BF41F21800C4F202000C
:101C5000016841F008010160006802A900F0080075
:101C6000019001981020029002200390059040F608
:101C70000000C4F2010000F58060FEF7B9FC04200A
:101C8000C4F2010001684FF2FF32CFF6FF021140AB
:101C900041F0E06141F40061016006B080BD0000E8
:101CA0007047000090F83C30012B04BF02207047C1
:101CB0004FEAB202032A3DD82DE9F043DFE802F0F3
:101CC00002407CB6036842F600461D6A1A6AC4F2F6
:101CD000010622F001021A621A465C6852F818CF17
:101CE000B3428E68D1F800E025F0020545EA06050A
:101CF0000CD1CE68D1E9057824F4407425F00C05A8
:101D000026F004063C43354344EA08042CF07307EC
:101D100047EA0E075C609F614F6809695F631D6257
:101D20009F6947F008079F619F6927F004079F613B
:101D3000ACE000BF0121002280F83C20084670473B
:101D4000036842F600461D6A1A6AC4F2010622F0D0
:101D500010021A621A46D3F804C052F8184FB34260
:101D60008E68D1F800E025F0200545EA06150FD170
:101D7000CE68D1E905986FF0400725F0C00507EA65
:101D8000061635432CF4406748EA090647EA860CF4
:101D900024F4E64444EA0E27C3F804C09F614F6868
:101DA00009699F631D629F6947F400679F619F698E
:101DB00027F480679F6168E0036842F600461D6A69
:101DC0001A6AC4F2010622F480721A621A46D3F823
:101DD00004C052F81CEFB3428E680C6825F40075FD
:101DE00045EA06250FD1CE68D1E90598360240F2C2
:101DF000FF4725F44065BE4335432CF4405748EA7D
:101E0000090647EA061C2EF073072743C3F804C0EF
:101E1000DF614F680969DF631D62DF6947F008070A
:101E2000DF61DF6927F00407DF612FE0036842F616
:101E30000047D3F820C01A6AC4F2010722F4805286
:101E40001A621A465C6852F81C5FD1F800E08E688E
:101E5000BB4204D14F6924F4804444EA87142CF433
:101E6000005747EA063725F4E64646EA0E265C6048
:101E7000DE614E6809691E641F62DF6947F400670E
:101E8000DF61DF6927F48067DF61090213681943A6
:101E900011600021BDE8F043002280F83C20084694
:101EA00070470000002804BF0120704710B50446A9
:101EB00090F83D0028B9002084F83C00204600F04E
:101EC00067F8022084F83D00206840F2FF73026842
:101ED000C4F2000342F6004C9842C4F2010C15DC37
:101EE000B0F1804F1AD040F20041C4F200018842A4
:101EF00014D0984218DCB0F1804F1DD040F2004160
:101F0000C4F20001884217D01AE000BF604505D036
:101F100040F60001C4F200018842EAD1A16822F033
:101F200070020A439842E6DD604505D040F60001A4
:101F3000C4F20001884203D1216922F440720A43AD
:101F4000A36922F08001D4F804E0E26819436045F7
:101F50000160C262C0F828E002D16169CCF830109B
:101F600001214161002084F8461084F83E1084F875
:101F70003F1084F8401084F8411084F8421084F82F
:101F8000431084F8441084F8451084F83D1010BDC7
:101F900082B0006840F20041C4F20001884215D0CE
:101FA00042F60041C4F2010188421CD141F21800FE
:101FB000C4F20200016841F400610160006800F4AD
:101FC00000600190019802B0704700BF41F2180014
:101FD000C4F20200416841F002014160406800F033
:101FE00002000090009802B07047000070470000A7
:101FF00041B1082910D0042914BF00F1410200F1B9
:102000003F020BE090F83E20012A1CBF01207047E0
:10201000022280F83E2013E000F140021278012AEB
:102020001CBF012070470222082907D0042914BFD1
:1020300080F8412080F83F2002E000BF80F8402077
:10204000006801F01F010122036A8A4023EA0201AD
:102050000162036A42F64441C4F201011A43A1F14C
:102060004403984202620FD040F2FF71C4F20001B3
:10207000884213DCB0F1804F1CD040F20041C4F222
:102080000001884216D01AE00A6842F400420A6051
:1020900040F2FF71C4F200018842EBDD42F60041DC
:1020A000C4F20101884205D040F60001C4F20001EB
:1020B000884204D1816801F00701062903D0016834
:1020C00041F00101016000207047000070470000EE
:1020D000704700007047000070470000B0B582B044
:1020E000044600680168C368426901F02F05202D8D
:1020F00003F0200506D12DB1204602B0BDE8B04066
:1021000001F0E6B95FEA017C1EBF02F0010E03F4A4
:10211000907212EB0E0243D1226BCD0618D5012A24
:1021200016D113F0100213D0002101910168019122
:10213000416801910199406940063BD4A08DE18D31
:10214000E28D002A18BF884240F0F28102B0B0BD93
:102150000A0640F1E78013F0800200F0E38094F873
:1021600041102129F2D1A168B1F5805F03D1216925
:10217000002900F06382216A4A1C226209784160CA
:10218000E18C01390A04E184E0D1C16821F08001C9
:10219000C160C16841F04001C16002B0B0BD00BF84
:1021A000CA0718BF13F4807240F0D0804A0700F1CC
:1021B000D380D8E0E06B016849688AB2002AC5D0B4
:1021C000A38D9A42C2D2E1858069202800F09E80CA
:1021D000206850E8030F216820F4807041E8030272
:1021E000DAB1206850E8030F216820F4807041E8DC
:1021F000030292B1206850E8030F216820F4807038
:1022000041E803024AB1206850E8030F216820F436
:10221000807041E80302002ADAD1206850E8050FF7
:10222000216820F0010041E80502C2B3206850E8AF
:10223000050F216820F0010041E805027AB320680B
:1022400050E8050F216820F0010041E8050232B393
:10225000206850E8050F216820F0010041E80502E0
:10226000002ADAD11BE000BF206850E8050F216882
:1022700020F0400041E80502DAB1206850E8050F7F
:10228000216820F0400041E8050292B1206850E842
:10229000050F216820F0400041E805024AB120689E
:1022A00050E8050F216820F0400041E80502002AAF
:1022B000DAD1202084F8420000202063206850E812
:1022C000030F216820F0100041E80302DAB1206812
:1022D00050E8030F216820F0100041E8030292B19A
:1022E000206850E8030F216820F0100041E8030245
:1022F0004AB1206850E8030F216820F0100041E83F
:102300000302002ADAD1E06BFEF7E0F802206063F6
:10231000A08DE18D401A81B2204602B0BDE8B040E8
:10232000FFF7D8BE49067FF511AF13F040013FF427
:102330000DAFC16821F04001C1602021204684F822
:10234000411002B0BDE8B04000F000BC626C42F049
:10235000010262644A0706D5BEF1000F03D0626C29
:1023600042F0020262648A0706D5BEF1000F03D074
:10237000626C42F004026264BCF1000F06D55EEAB2
:10238000050203D0626C42F008026264626C002AAB
:102390003FF4DCAE890604D51DB1204601F098F863
:1023A00020684069616C00F0400001F008014018AD
:1023B00000F0B680206850E8030F216820F4907088
:1023C00041E80302BAB3206850E8030F216820F403
:1023D000907041E8030272B3206850E8030F21684F
:1023E00020F4907041E803022AB3206850E8030FFC
:1023F000216820F4907041E80302002ADAD11AE043
:10240000206850E8050F216820F0010041E805022E
:10241000DAB1206850E8050F216820F0010041E89A
:10242000050292B1206850E8050F216820F00100F4
:1024300041E805024AB1206850E8050F216820F004
:10244000010041E80502002ADAD1206B012824D1DD
:10245000206850E8030F216820F0100041E80302D3
:10246000DAB1206850E8030F216820F0100041E83D
:10247000030292B1206850E8030F216820F0100099
:1024800041E803024AB1206850E8030F216820F0B8
:10249000100041E80302002ADAD1202084F842002B
:1024A0000020206320684069400640F1C180206818
:1024B00050E8050F216820F0400041E80502DAB13C
:1024C000206850E8050F216820F0400041E805022F
:1024D00092B1206850E8050F216820F0400041E8E3
:1024E00005024AB1206850E8050F216820F040003D
:1024F00041E80502002ADAD1E06B002800F098805C
:1025000043F2C541C0F600014163FEF703F800281D
:102510003FF41CAEE06B416B02B0BDE8B040084731
:102520002046FFF7D9FD0020606402B0B0BD00BFB7
:10253000401A00BF216851E8031F226821F49071FE
:1025400042E80313BBB3216851E8031F226821F45A
:10255000907142E8031373B3216851E8031F2268A6
:1025600021F4907142E803132BB3216851E8031F53
:10257000226821F4907142E80313002BDAD11AE0AB
:10258000216851E8051F226821F0010142E8051386
:10259000DBB1216851E8051F226821F0010142E802
:1025A000051393B1216851E8051F226821F001014C
:1025B00042E805134BB1216851E8051F226821F05C
:1025C000010142E80513002BDAD1202184F84210E2
:1025D00000212163216851E8031F226821F01001C6
:1025E00042E80313DBB1216851E8031F226821F0A0
:1025F000100142E8031393B1216851E8031F2268D8
:1026000021F0100142E803134BB1216851E8031F88
:10261000226821F0100142E80313002BDAD10222D4
:1026200081B22046626302B0BDE8B040FFF752BD00
:10263000204602B0BDE8B040FFF74EBD216A31F838
:10264000022B6FF35F224260216299E5002804BFEC
:102650000120704710B5044690F8410028B90020C9
:1026600084F84000204600F063F8242084F84100FC
:102670002068D4E90212C36823F40053C3600369DD
:1026800023F440531A430261D4E904231143C2687E
:10269000194341F20C639A431143C1604169A26935
:1026A00021F44071114343F60002C4F2010290424A
:1026B000416103D0FEF74EFA02E000BFFEF75EFA7A
:1026C000D4E90023192148439900B0FBF1F048F206
:1026D0001F5CC5F2EB1CA0FB0C314FF69C73490943
:1026E000C0F6FF7301FB0300322303EB0010A0FBD5
:1026F0000C03F02000EA531000EB0110C3F3431168
:10270000084490601069202120F4904010615069C5
:1027100020F02A005061D06840F40050D0600020C2
:10272000606484F8411084F84210606310BD0000BA
:10273000F0B585B0006844F20041C4F2000188425F
:102740004FF00001CDE90311CDE9011122D043F68C
:102750000001C4F20101884253D141F21800C4F2D1
:1027600002000168252441F48041016001684FF4B2
:10277000806701F4804100910099016841F00401F3
:102780000160006800F00400009000984FF40070B1
:1027900019E000BF41F21800C4F20200416826248B
:1027A00041F4003141604168082701F40031009193
:1027B0000099016841F004010160006800F0040024
:1027C0000090009804200190022040F6000502903D
:1027D0000320C4F2010501AE049028463146FDF7FE
:1027E00007FF0020CDE90200284631460197FDF79A
:1027F000FFFE204600210022FEF78EF82046FEF75D
:1028000079F805B0F0BD000090F84230202B07D1D8
:1028100000294FF0010318BF002A05D11846704760
:1028200002231846704700BF002303638162222100
:102830008285C285436480F842100169006819B13D
:10284000C16841F48071C160416941F00101416199
:10285000C16841F02001C16018467047006843F626
:102860000001C4F20101884218BF704740F2900095
:10287000C2F2000001783039082920D8DFE801F0E1
:1028800006080A0C0E101214160000BF032115E0F2
:10289000012113E0022111E0012108E0022106E0FC
:1028A000032104E0042102E0052100E00621C160CB
:1028B00040F20000C2F2000000214160816040F25D
:1028C0004C2040F29001C2F20000C2F2000101224D
:1028D000FFF79ABF2DE9F04381B0044690F841001C
:1028E000202840F0B180884600294FF0010000F018
:1028F000D6801646002A00F0D28000206064212095
:102900001D4684F84100FDF787FFA684E684A16890
:102910000646B1F5805F03D12069002800F0988059
:1029200047464FF00008E18C2068002900F09680AF
:1029300005F101090BE000BF47B317F8011B416027
:10294000E18C0139E184E18C002900F08780016885
:102950000906F1D4B9F1000F0AD0EDB1FDF75CFF23
:10296000801BA84218D8206801680906F6D5E3E75D
:1029700001680906E0D4016809065CBF01685FEAE6
:102980000161D9D401680906F2D5D5E738F8021BF0
:1029900000276FF35F21D2E7206850E8030F21681A
:1029A00020F4D07041E80302BAB3206850E8030F66
:1029B000216820F4D07041E8030272B3206850E827
:1029C000030F216820F4D07041E803022AB3206885
:1029D00050E8030F216820F4D07041E80302002A78
:1029E000DAD11AE0206850E8050F216820F00100D4
:1029F00041E80502DAB1206850E8050F216820F0AF
:102A0000010041E8050292B1206850E8050F2168F5
:102A100020F0010041E805024AB1206850E8050FA6
:102A2000216820F0010041E80502002ADAD12020C7
:102A300084F8410084F84200002084F8400003201C
:102A400001B0BDE8F08300BF022001B0BDE8F08313
:102A50000027E18C206800297FF46AAF01684906ED
:102A600019D4FDB1691C0DD10168490613D4016860
:102A700049065CBF01685FEA41610CD40168490600
:102A8000F2D508E0FDF7C8FE801BA8420AD82068EE
:102A900000684006F6D5202084F84100002001B0EF
:102AA000BDE8F083206850E8030F216820F4D0705F
:102AB00041E80302002A3ED0206850E8030F216855
:102AC00020F4D07041E80302AAB3206850E8030F55
:102AD000216820F4D07041E8030262B3206850E816
:102AE000030F216820F4D07041E80302002AD9D1F5
:102AF00021E000BF206850E8050F216820F00100A8
:102B000041E80502002A3FF492AF206850E8050F23
:102B1000216820F0010041E80502002A3FF487AF58
:102B2000206850E8050F216820F0010041E8050207
:102B3000002A3FF47CAF206850E8050F216820F0A0
:102B4000010041E80502002AD4D170E77047000077
:102B5000FEE700002DE9F04184B040F60005C4F224
:102B6000010504462846102100224FF00008FDF719
:102B70004DFE40F2D4061A20C2F200068DF80D0078
:102B800064270DF10D0103AA304601230097FEF7DB
:102B90009BFA0DF10F010DF10E02304601238DF865
:102BA0000F800097FEF790FA284610210122FDF7CA
:102BB0002DFE42F29300208002AF0C20214602221B
:102BC0002346009700F084F910B104B0BDE8F0810D
:102BD00020786178A278E3784840504021795840C5
:102BE000401A18BF0120400004B0BDE8F081000089
:102BF000F0B583B040F60004C4F201042046102171
:102C00000122FDF703FE04F5806001210122FDF79A
:102C1000FDFD2046102100220027FDF7F7FD40F2C0
:102C2000D4050220C2F200058DF80B0064260DF1D8
:102C30000B010DF10A02284601230096FEF744FA23
:102C40000F208DF80B000DF10B010DF10A02284643
:102C500001230096FEF738FA204610210122FDF7E5
:102C6000D5FD204610210022FDF7D0FD54208DF81F
:102C70000B000DF10B010DF10A022846012300960D
:102C8000FEF722FA8D208DF80B000DF10B010DF1EE
:102C90000A02284601230096FEF716FA2046102164
:102CA0000122FDF7B3FD204610210022FDF7AEFD05
:102CB00056208DF80B000DF10B010DF10A0228468C
:102CC00001230096FEF700FA3E208DF80B000DF16F
:102CD0000B010DF10A02284601230096FEF7F4F9D4
:102CE000204610210122FDF791FD204610210022EF
:102CF000FDF78CFD5A208DF80B000DF10B010DF145
:102D00000A02284601230096FEF7DEF91E208DF800
:102D10000B000DF10B010DF10A022846012300966C
:102D2000FEF7D2F9204610210122FDF76FFD204663
:102D300010210022FDF76AFD58208DF80B000DF1DF
:102D40000B010DF10A02284601230096FEF7BCF99B
:102D50000DF10B010DF10A02284601238DF80B70CD
:102D60000096FEF7B1F9204610210122FDF74EFD35
:102D7000204610210022FDF749FD2A208DF80B0086
:102D80000DF10B010DF10A02284601230096FEF712
:102D90009BF940208DF80B000DF10B010DF10A029B
:102DA000284601230096FEF78FF9204610210122C4
:102DB000FDF72CFD204610210022FDF727FD2220E3
:102DC0008DF80B000DF10B010DF10A0228460123CD
:102DD0000096FEF779F93D208DF80B000DF10B01FF
:102DE0000DF10A02284601230096FEF76DF92046F0
:102DF00010210122FDF70AFD204610210022FDF7D7
:102E000005FDA8208DF80B000DF10B010DF10A0254
:102E1000284601230096FEF757F90DF10B010DF13D
:102E20000A02284601238DF80B700096FEF74CF934
:102E3000204610210122FDF7E9FC1420032100F0B7
:102E400097FA03B0F0BD00002DE9F04184B040F6E0
:102E50000008C4F201080C46054640461021002235
:102E6000FDF7D4FC40F2D4071A20C2F200078DF817
:102E70000D0064260DF10D0103AA384601230096CA
:102E8000FEF722F907208DF80F000DF10F010DF16B
:102E90000E02384601230096FEF716F9404610212F
:102EA0000122FDF7B3FC02AF0C202146012223468C
:102EB0002570009700F00CF802991029014618BF00
:102EC0000221002818BF0221084604B0BDE8F081A5
:102ED0002DE9F04F87B017460C28884602930490DE
:102EE00006D00E2808D111200590122007E000BF5F
:102EF00031200590772002E001200590002040F667
:102F00000006C4F20106039000F18005304610214E
:102F100000224FF00009FDF779FC40F2D40A0420AA
:102F2000C2F2000A8DF81B0064240DF11B010DF1A3
:102F30001A02504601230094FEF7C6F80DF11B015A
:102F40000DF11A02504601238DF81B500094FEF734
:102F5000BBF8304610210122FDF758FC04208021E7
:102F6000FDF788F90A20802100F002FA304610218E
:102F70000022FDF74BFC02208DF81B000DF11B0118
:102F80000DF11A02504601230094FEF79DF80DF151
:102F90001B010DF11A02504601238DF81B9000947D
:102FA000FEF792F8304610210122FDF72FFC67B39F
:102FB00040F2D40AA8F10105C2F2000A0DF11B0982
:102FC0000DF11A0815F801BF3046102100226424C3
:102FD000FDF71CFC12208DF81B0050464946424666
:102FE00001230094FEF770F8642450464946424697
:102FF00001238DF81BB00094FEF766F830461021CF
:103000000122FDF703FC013FDCD1304610210022F4
:10301000FDF7FCFB40F2D4070220C2F200078DF856
:103020001B000DF11B010DF11A023846012300941B
:10303000FEF74AF8049D0DF11B010DF11A02384606
:1030400001238DF81B500094FEF73EF83046102106
:103050000122FDF7DBFB0C2D03D10D20802100F0B8
:1030600087F94FF6300540F2D409CFF6FF754FF0DF
:1030700088084FF0640AC2F200090DF11B0B0DF134
:103080001A0400BF304610210022FDF7BFFB48465E
:103090005946224601238DF81B80CDF800A0FEF78B
:1030A00013F800208DF81B0048465946224601239C
:1030B000CDF800A0FEF708F89DF81A7030461021F0
:1030C0000122FDF7A3FB013580F0D080059838423E
:1030D000D8D00D208021FDF7CDF8304610210022F8
:1030E0004FF00008FDF792FB40F2D4048C20C2F2AE
:1030F00000048DF81B0064250DF11B010DF11A026F
:10310000204601230095FDF7DFFF0DF11B010DF1B6
:103110001A02204601238DF81B800095FDF7D4FF8D
:103120009DF81A40304610210122FDF76FFB14F084
:103130001B0F40F09F800398049938400C2900F041
:10314000010040F0988005903046102100224FF099
:1031500010094FF00008FDF759FB40F2D405942008
:10316000C2F200050DF11A0B8DF81B0064240DF15D
:103170001B0128465A4601230094B2460126FDF75A
:10318000A3FF0DF11B010DF11A02284601238DF852
:103190001B800094FDF798FF9DF81A70504610218F
:1031A0000122FDF733FB504610210022FDF72EFBD4
:1031B00098208DF81B000DF11B010DF11A02284615
:1031C00001230094FDF780FF0DF11B010DF11A02A0
:1031D000284601238DF81B800094FDF775FF9DF8AC
:1031E0001A80504610210122FDF710FB18F007004D
:1031F00040EAC7001099A0F1080008BFF800086075
:10320000012F98BF3746102F28BF4F4602984FF026
:103210009209A0F1010800BF504610210022FDF7DD
:10322000F5FA0DF11B06284631465A4601238DF862
:103230001B900094FDF748FF00208DF81B002846E6
:1032400031465A4601230094FDF73EFF9DF81A606F
:10325000504610210122FDF7D9FA013F08F8016F0D
:10326000DAD1059807B0BDE8F08F00BF0D208021AE
:10327000FDF700F8022007B0BDE8F08FFEE7000080
:10328000FEE70000704700002DE9F04182B01E46C5
:1032900090460D460446FDF7BFFA301A00EB0807CA
:1032A000FDF7BAFA40F22401C2F200010968C1F345
:1032B000CB317943019121688A682A40AA4227D1FB
:1032C000064618F101001FD0FDF7A6FA801BB84290
:1032D00022D2019801990028A1F1010101912168F0
:1032E000896808BF074601EA0500A842ECD00FE054
:1032F00088682840A8420BD188682840A84207D196
:1033000088682840A84203D188682840A842EFD0A6
:10331000002002B0BDE8F081D4E900014268B1F5B7
:10332000827F22F0E00242600AD1A168B1F5004F2D
:1033300002D0B1F5806F03D1016821F04001016036
:10334000A16AB1F5005F07D1016821F40051016065
:10335000016841F400510160012084F8510000200F
:1033600084F85000032002B0BDE8F08170470000EF
:103370002DE9F04784B040F60008C4F201088A46FF
:1033800006464046102100224FF00009FDF73EFAA4
:10339000802040F2D40540EA4600C2F200058DF8D4
:1033A000090064240DF1090102AA284601230094B2
:1033B000FDF78AFE0DF10B010DF10A0228460123EB
:1033C0008DF80B900094FDF77FFE9DF80A70404643
:1033D00010210122FDF71AFA40461021002247EA87
:1033E0000A07FDF713FA7E2000EA46008DF80D006B
:1033F0000DF10D0103AA284601230094FDF764FE98
:103400000DF10F010DF10E02284601238DF80F700A
:103410000094FDF759FE404610210122FDF7F6F910
:1034200004B0BDE8F087000040F2880CC2F2000C46
:10343000DCF804104A1C40F29101C2F20001097844
:10344000322ACCF8042008BF002905D0322A08BF50
:1034500001290BD0FDF7E6B940F2DC21C2F20001F0
:103460000988BCF800208A1A08E000BF40F2DC217D
:10347000C2F20001BCF800200988521A93B24EF63D
:103480006020584346F66303C1F6C67380FB03030E
:10349000ACF80220D80A40F2940200EBD370C2F2DA
:1034A000000210800020ACF80010CCF80400FDF7FA
:1034B000B9B900007047000040F27410C2F2000079
:1034C000FEF7D8BA406A0021C185C184FEF704BE68
:1034D00081B090F84210222921D183680246B3F5C9
:1034E000805F09D152F8281F52F8183C002B63D096
:1034F00003685B680AE000BF52F8281F13B903692C
:10350000002BF5D003685B6803F07F030B70116834
:1035100001311160C18D01390A04C18502D001B0A9
:10352000704700BF0168CA6822F02002CA60CA68FA
:1035300022F48072CA604A6922F001024A612021A5
:1035400080F8421000214163026B012A3CD10163E3
:10355000016851E8031F026821F0100142E80313DB
:10356000DBB1016851E8031F026821F0100142E855
:10357000031393B1016851E8031F026821F01001A1
:1035800042E803134BB1016851E8031F026821F0C0
:10359000100142E80313002BDAD101680A68D20651
:1035A00006D5002200920A680092496800910099AD
:1035B000818D01B0FEF78EBD026852686FF35F2205
:1035C00021F8022B8162A5E701B0FFF747B900009F
:1035D00040F24C20C2F20000FEF780BD40F2942081
:1035E000C2F20000FEF77ABDFEE7000094B0FDF7DE
:1035F00027F900240120CDE90544CDE903440090DA
:1036000004904FF4E0104FF4803102250990684691
:10361000CDE90114CDE90751FDF7C4FA20B1EFF36C
:10362000108072B6FEE700BF0F20CDE90A054FF407
:103630008060CDE90D040AA802210C94FDF7A8F9D9
:1036400020B1EFF3108072B6FEE700BF41F2180020
:10365000C4F20200016840F6004A41F02001016016
:103660000168C4F2010A01F020010091009901688B
:10367000AAF5806B41F004010160016842F634490B
:1036800001F00401009100990168002241F0080155
:103690000160006848F2100100F0080000900098F6
:1036A0005846C4F2010948F210040027FDF7AEF8AD
:1036B000504640F2EB51002240F2EB58FDF7A6F8DD
:1036C0006E4600940124022558463146CDE9014753
:1036D0000395FCF78DFF50463146CDE90084CDE9D6
:1036E0000275FCF785FF4FF40060CDE900075046F6
:1036F00031460294FCF77CFF4FF4C050CDE900073F
:10370000584631460294FCF773FF40F2D40009F5A5
:103710007371C2F200004FF482724FF400731026EE
:1037200080E886000A21C0E90377C0E90573C66115
:10373000C0E90877C0E90A71FDF734FC20B1EFF366
:10374000108072B6FEE700BF40F22C100AF500515F
:10375000C2F200006323CDE912770697472280E882
:103760008600C0E90337C0E90577FEF79BFB28B167
:10377000EFF3108072B600BFFEE700BF40F22C10DE
:10378000C2F2000012A9FDF74BFE28B1EFF3108042
:1037900072B600BFFEE700BF60200A9040F22C1016
:1037A0000024C2F200000AA90022CDE90B44CDE9B1
:1037B0000D44CDE90F44FEF775FA28B1EFF3108000
:1037C00072B600BFFEE700BF4FF40050059040F214
:1037D0002C10C2F2000069460494CDE90244CDE900
:1037E00000440794FDF7F4FD20B1EFF3108072B6AA
:1037F000FEE700BF40F22C10C2F20000FEF7F2F923
:1038000040F274100021C2F200004FF080424FF6E7
:10381000FF73C0E90021C0E90213032201230DF167
:10382000100CCDE90A110161816100920222CDE9FB
:1038300002318CE80E00CDE9071169460192FDF7CF
:10384000C1FF28B1EFF3108072B600BFFEE700BFE2
:1038500040F27410C2F200000AA9FDF7E1FD28B1A0
:10386000EFF3108072B600BFFEE700BF40F2042005
:103870000021AAF58232C2F2000047234FF6FF77FB
:103880000391CDE90111CDE90A11C0E90023C0E996
:10389000021701618161FDF703FE28B1EFF310808B
:1038A00072B600BFFEE700BF4FF48050009040F2B8
:1038B0000420C2F200006946FDF7B4FE20B1EFF328
:1038C000108072B6FEE700BF40F20425C2F2000588
:1038D0000AA92846FDF7A4FD20B1EFF3108072B6C7
:1038E000FEE700BF40F24C2043F60001C2F20000A8
:1038F000C4F201014FF4E13700240C26C0E900179F
:10390000C0E90244C0E90446C0E90644FEF79EFE51
:1039100020B1EFF3108072B6FEE700BF40F29420B2
:10392000AAF54841C2F20000C0E90017C0E902440C
:10393000C0E90446C0E90644FEF788FE20B1EFF373
:10394000108072B6FEE700BF40F2BC100021AAF55D
:103950008432C2F2000040F2CF234FF4FA67CDE97F
:103960000A11CDE90511CDE90311C0E90023C0E931
:10397000021701618161FEF795FA18B1EFF310802B
:1039800072B6FEE740F2BC10C2F200000AA9FDF7D1
:1039900047FD18B1EFF3108072B6FEE7602000908B
:1039A00040F2BC104FF00008C2F20000694600224D
:1039B000CDE90188CDF81080FEF774F920B1EFF35E
:1039C000108072B6FEE700BF40F2BC16C2F20006DD
:1039D0003046FEF707F9FFF70BF940F27410C2F218
:1039E00000003C21FDF7CAFF5020C9F8000040F25A
:1039F0002C10C2F200000021FEF7FAFA2846FDF76B
:103A0000DDFD40F2900440F24C20C2F20004C2F20C
:103A1000000021460122FEF7F7FE30460021FEF7A6
:103A2000E7FA306887214163FCF7EAFCFCF780FC89
:103A300040F20007C2F200070BE000BF504602212F
:103A40000022FCF7E3FE50464FF480610022FCF7B1
:103A5000DDFEA06802281FD00128EFD150464FF4A8
:103A60000061FCF7CDFE012840F08680504602211F
:103A70000122FCF7CBFE50464FF480610022FCF798
:103A8000C5FE502084F80180C9F800003220FCF700
:103A90009BFD01F01DBA00BF504602210022FCF739
:103AA000B5FE50464FF480610022FCF7AFFEE1689E
:103AB0007868012940F0F080632800F3ED8040F23F
:103AC0000007C2F20007B968002941F0DC834FF417
:103AD0007A70FCF779FD40F2BC10C2F20000006879
:103AE000872141634FF4FA60FCF76EFD58464FF4AE
:103AF0000061FCF785FE002800F0C88150460821CF
:103B00000022FCF783FE58464FF400410022FCF7E8
:103B10007DFE50464FF480710122FCF777FE286845
:103B2000C0F82480416A09097C290BD8416A090937
:103B30007C2907D8416A09097C2903D8416AB1F573
:103B4000FA6FEFD350464FF480710022FCF75EFE0F
:103B50002868C0F82480416A09097C29C6D8416ACE
:103B600009097C29C2D8416A09097C29BED8416A61
:103B7000B1F5FA6FEFD3B9E7504602210022FCF706
:103B800045FE50464FF480610022FCF73FFEA078CE
:103B900040F2000131380528C2F200014FF0FF3237
:103BA0000A6001F29581DFE810F00700A90319040B
:103BB0008904F904690500BF4FF47A70FCF704FD2D
:103BC00040F2BC10C2F200000068872141634FF44C
:103BD000FA60FCF7F9FCA66A4FF4C870B6F5C87F26
:103BE000A06201F36B83504640210022FCF70EFED9
:103BF000504620210022FCF709FEB6F5C87F41F0AF
:103C00005185504620210122FCF700FE58464FF412
:103C10000061FCF7F5FD002800F0A0855046082162
:103C20000022FCF7F3FD58464FF400410022FCF758
:103C3000EDFD50464FF480710122FCF7E7FD286846
:103C4000C0F82480416A09097C290BD8416A090916
:103C50007C2907D8416A09097C2903D8416AB1F552
:103C6000FA6FEFD350464FF480710022FCF7CEFD7F
:103C70002868C0F82480416A09097C29C6D8416AAD
:103C800009097C29C2D8416A09097C29BED8416A40
:103C9000B1F5FA6FEFD3B9E7022979D1632877DC60
:103CA00040F20007C2F20007B968002941F0EB8238
:103CB0004FF47A70FCF788FC40F2BC10C2F20000AE
:103CC0000068872141634FF4FA60FCF77DFC666A67
:103CD0004FF41670B6F5167F606201F3D981504635
:103CE00008210122FCF792FD58464FF400410022C2
:103CF000FCF78CFDB6F5167F41F03C8458464FF436
:103D000000410122FCF782FD58464FF48051FCF738
:103D100077FD002800F02E82504640210122FCF75A
:103D200075FD504620210022FCF770FD5046802191
:103D30000122FCF76BFD2868C0F82480416A09095C
:103D40007C290BD8416A09097C2907D8416A0909ED
:103D50007C2903D8416AB1F5FA6FEFD35046802130
:103D60000022FCF753FD2868C0F82480416A090945
:103D70007C29C9D8416A09097C29C5D8416A090941
:103D80007C29C1D8416AB1F5FA6FEFD3BCE700BF17
:103D9000032940F0BB81632800F3B88140F200079B
:103DA000C2F20007B968002941F06D824FF47A70C1
:103DB000FCF70AFC40F2BC10C2F200000068872148
:103DC00041634FF4FA60FCF7FFFB666A4FF49660BC
:103DD000B6F5966F606201F309845046082101220E
:103DE000FCF714FD58464FF400410022FCF70EFD8D
:103DF000B6F5966F42F0E68058464FF40041012236
:103E0000FCF704FD58464FF48051FCF7F9FC0028FC
:103E100001F04C81504640210122FCF7F7FC50464E
:103E200020210022FCF7F2FC504680210122FCF701
:103E3000EDFC2868C0F82480416A09097C290BD868
:103E4000416A09097C2907D8416A09097C2903D8F4
:103E5000416AB1F5FA6FEFD3504680210022FCF79A
:103E6000D5FC2868C0F82480416A09097C29C9D892
:103E7000416A09097C29C5D8416A09097C29C1D848
:103E8000416AB1F5FA6FEFD3BCE700BF58464FF473
:103E900000410122FCF7BAFCC4F8248058464FF4D4
:103EA0008051FCF7ADFCD8B3504640210122FCF70D
:103EB000ADFC504620210022FCF7A8FC5046802192
:103EC0000122FCF7A3FC2868C0F82480416A090994
:103ED0007C290BD8416A09097C2907D8416A09095C
:103EE0007C2903D8416AB1F5FA6FEFD3504680219F
:103EF0000022FCF78BFC2868C0F82480416A09097D
:103F00007C29CBD8416A09097C29C7D8416A0909AB
:103F10007C29C3D8416AB1F5FA6FEFD3BEE700BF81
:103F2000504620210122FCF771FC00264FF47A70E4
:103F3000A662FCF749FB40F2BC10C2F20000006828
:103F4000BE2141634FF4FA60FCF73EFBA06A4021BA
:103F500000F5C870A06250460022FCF757FC50469E
:103F600020210022FCF752FC04E000BF0136B6F528
:103F7000C87F31D0504680210122FCF747FC2868D9
:103F8000C0F82480416A09097C290BD8416A0909D3
:103F90007C2907D8416A09097C2903D8416AB1F50F
:103FA000FA6FEFD3504680210022FCF72FFC2868DF
:103FB000C0F82480416A09097C29D7D8416A0909D7
:103FC0007C29D3D8416A09097C29CFD8416AB1F547
:103FD000FA6FEFD3CAE700BF504620210122FCF759
:103FE00015FC606A082100F54870606250460122A5
:103FF000FCF70CFC58464FF4004100220026FCF769
:1040000005FC03E00136B6F5487F33D050464FF447
:1040100080710122FCF7FAFB2868C0F82480416A0D
:1040200009097C290BD8416A09097C2907D8416A0A
:1040300009097C2903D8416AB1F5FA6FEFD35046DC
:104040004FF480710022FCF7E1FB2868C0F824805F
:10405000416A09097C29D5D8416A09097C29D1D846
:10406000416A09097C29CDD8416AB1F5FA6FEFD3CD
:10407000C8E700BF58464FF400410122FCF7C6FBD9
:10408000A06A402100F5C870A062504600220026B8
:10409000FCF7BCFB504620210022FCF7B7FB04E0F4
:1040A0000136B6F5C87F01F0D38050468021012249
:1040B000FCF7ACFB2868C0F82480416A09097C2918
:1040C0000BD8416A09097C2907D8416A09097C296A
:1040D00003D8416AB1F5FA6FEFD350468021002230
:1040E000FCF794FB2868C0F82480416A09097C2900
:1040F000D6D8416A09097C29D2D8416A09097C29A4
:10410000CED8416AB1F5FA6FEFD3C9E7042940F080
:104110009D87632800F39A8740F20007C2F20007E8
:10412000B968002941F0AF804FF47A70FCF74CFA7F
:1041300040F2BC16C2F200063068872141634FF49A
:10414000FA60FCF741FAFCF7F3F8FCF759F94FF481
:104150007A70FCF739FA3068BE2141634FF4FA6097
:10416000FCF732FA4FF4C87002F014F84FF44870BC
:1041700001F0F8B9504620210122FCF747FB002648
:104180004FF47A70A662FCF71FFA40F2BC10C2F23C
:1041900000000068BE2141634FF4FA60FCF714FA96
:1041A000A06A402100F5C870A06250460022FCF7CA
:1041B0002DFB504620210022FCF728FB04E000BF25
:1041C0000136B6F5C87F31D0504680210122FCF778
:1041D0001DFB2868C0F82480416A09097C290BD896
:1041E000416A09097C2907D8416A09097C2903D851
:1041F000416AB1F5FA6FEFD3504680210022FCF7F7
:1042000005FB2868C0F82480416A09097C29D7D8B1
:10421000416A09097C29D3D8416A09097C29CFD888
:10422000416AB1F5FA6FEFD3CAE700BF50462021CB
:104230000122FCF7EBFA666A4FF44870B6F5487F46
:10424000606200F38F87504608210122FCF7DEFAF6
:1042500058464FF400410022FCF7D8FAB6F5487FE3
:1042600041F0D48158464FF400410122FCF7CEFAC8
:10427000A06A402100F5C870A062504600220026C6
:10428000FCF7C4FA504620210022FCF7BFFA04E0F4
:104290000136B6F5C87F00F0DB8750468021012249
:1042A000FCF7B4FA2868C0F82480416A09097C291F
:1042B0000BD8416A09097C2907D8416A09097C2978
:1042C00003D8416AB1F5FA6FEFD35046802100223E
:1042D000FCF79CFA2868C0F82480416A09097C2907
:1042E000D6D8416A09097C29D2D8416A09097C29B2
:1042F000CED8416AB1F5FA6FEFD3C9E74FF47A70BF
:10430000FCF762F940F2BC10C2F20000006887219D
:1043100041634FF4FA60FCF757F9A66A4FF4C8708E
:10432000B6F5C87FA06200F3D7875046402100222F
:10433000FCF76CFA504620210022FCF767FAB6F52C
:10434000C87F41F0E981504620210122FCF75EFA46
:1043500058464FF40061FCF753FA002800F07482CD
:10436000504608210022FCF751FA58464FF400410C
:104370000022FCF74BFA50464FF480710122FCF703
:1043800045FA2868C0F82480416A09097C290BD8BD
:10439000416A09097C2907D8416A09097C2903D89F
:1043A000416AB1F5FA6FEFD350464FF480710022A5
:1043B000FCF72CFA2868C0F82480416A09097C2996
:1043C000C6D8416A09097C29C2D8416A09097C29F1
:1043D000BED8416AB1F5FA6FEFD3B9E74FF47A70FE
:1043E000FCF7F2F840F2BC10C2F20000006887212E
:1043F00041634FF4FA60FCF7E7F8A66A4FF4C8701F
:10440000B6F5C87FA06200F37587504640210022B0
:10441000FCF7FCF9504620210022FCF7F7F9B6F52D
:10442000C87F41F0B381504620210122FCF7EEF90C
:1044300058464FF40061FCF7E3F9002800F0B2821F
:10444000504608210022FCF7E1F958464FF400419C
:104450000022FCF7DBF950464FF480710122FCF793
:10446000D5F92868C0F82480416A09097C290BD84D
:10447000416A09097C2907D8416A09097C2903D8BE
:10448000416AB1F5FA6FEFD350464FF480710022C4
:10449000FCF7BCF92868C0F82480416A09097C2926
:1044A000C6D8416A09097C29C2D8416A09097C2910
:1044B000BED8416AB1F5FA6FEFD3B9E74FF47A701D
:1044C000FCF782F840F2BC10C2F2000000688721BD
:1044D00041634FF4FA60FCF777F8A66A4FF4C870AE
:1044E000B6F5C87FA06200F3138750464021002232
:1044F000FCF78CF9504620210022FCF787F9B6F52D
:10450000C87F41F07D81504620210122FCF77EF9D1
:1045100058464FF40061FCF773F9002800F0F08270
:10452000504608210022FCF771F958464FF400412B
:104530000022FCF76BF950464FF480710122FCF722
:1045400065F92868C0F82480416A09097C290BD8DC
:10455000416A09097C2907D8416A09097C2903D8DD
:10456000416AB1F5FA6FEFD350464FF480710022E3
:10457000FCF74CF92868C0F82480416A09097C29B5
:10458000C6D8416A09097C29C2D8416A09097C292F
:10459000BED8416AB1F5FA6FEFD3B9E74FF47A703C
:1045A000FCF712F840F2BC10C2F20000006887214C
:1045B00041634FF4FA60FCF707F8A66A4FF4C8703D
:1045C000B6F5C87FA06200F3B186504640210022B4
:1045D000FCF71CF9504620210022FCF717F9B6F52C
:1045E000C87F41F04781504620210122FCF70EF997
:1045F00058464FF40061FCF703F9002800F0F682FA
:10460000504608210022FCF701F958464FF40041BA
:104610000022FCF7FBF850464FF480710122FCF7B2
:10462000F5F82868C0F82480416A09097C290BD86C
:10463000416A09097C2907D8416A09097C2903D8FC
:10464000416AB1F5FA6FEFD350464FF48071002202
:10465000FCF7DCF82868C0F82480416A09097C2945
:10466000C6D8416A09097C29C2D8416A09097C294E
:10467000BED8416AB1F5FA6FEFD3B9E74FF47A705B
:10468000FBF7A2FF40F2BC10C2F2000000688721D5
:1046900041634FF4FA60FBF797FFA66A4FF4C870C6
:1046A000B6F5C87FA06200F34F8650464021002235
:1046B000FCF7ACF8504620210022FCF7A7F8B6F52D
:1046C000C87F41F01181504620210122FCF79EF85D
:1046D00058464FF40061FCF793F8002800F034834B
:1046E000504608210022FCF791F858464FF400414B
:1046F0000022FCF78BF850464FF480710122FCF742
:1047000085F82868C0F82480416A09097C290BD8FB
:10471000416A09097C2907D8416A09097C2903D81B
:10472000416AB1F5FA6FEFD350464FF48071002221
:10473000FCF76CF82868C0F82480416A09097C29D4
:10474000C6D8416A09097C29C2D8416A09097C296D
:10475000BED8416AB1F5FA6FEFD3B9E758464FF4C6
:1047600000410122FCF752F8A66A4FF44870B6F5F2
:10477000487FC4F82480A06200F3F48550464021AD
:104780000022FCF743F8504620210022FCF73EF8B7
:10479000B6F5487F41F0E280504620210122FCF727
:1047A00035F84FF47A70FBF70FFF40F2BC10C2F2FD
:1047B00000000068BE2141634FF4FA60FBF704FF7C
:1047C00058464FF48051FCF71BF8002800F068832E
:1047D000504640210122FCF719F8504620210022C2
:1047E000FCF714F8504680210122FCF70FF82868E6
:1047F000C0F82480416A09097C290BD8416A09095B
:104800007C2907D8416A09097C2903D8416AB1F596
:10481000FA6FEFD3504680210022FBF7F7FF28689C
:10482000C0F82480416A09097C29C9D8416A09096C
:104830007C29C5D8416A09097C29C1D8416AB1F5EA
:10484000FA6FEFD3BCE700BF58464FF40041012296
:10485000FBF7DCFFA66A4FF44870B6F5487FC4F852
:104860002480A06200F38C85504640210022FBF793
:10487000CDFF504620210022FBF7C8FFB6F5487F48
:1048800041F0A680504620210122FBF7BFFF4FF4E4
:104890007A70FBF799FE40F2BC10C2F2000000688B
:1048A000BE2141634FF4FA60FBF78EFEA66A4FF417
:1048B000C870B6F5C87FA06200F3708550464021ED
:1048C0000022FBF7A3FF504620210022FBF79EFFAA
:1048D000B6F5C87F41F0B680504620210122FBF793
:1048E00095FF666A4FF41670B6F5167F606200F3A6
:1048F0006385504608210122FBF788FF58464FF494
:1049000000410022FBF782FFB6F5167F41F0D4800C
:1049100058464FF400410122FBF778FF58464FF408
:104920008051FBF76DFF002800F0BA82504640210D
:104930000122FBF76BFF504620210022FBF766FFA8
:10494000504680210122FBF761FF2868C0F82480CF
:10495000416A09097C290BD8416A09097C2907D8D1
:10496000416A09097C2903D8416AB1F5FA6FEFD38E
:10497000504680210022FBF749FF2868C0F82480B8
:10498000416A09097C29C9D8416A09097C29C5D825
:10499000416A09097C29C1D8416AB1F5FA6FEFD3A0
:1049A000BCE700BF58464FF400410122FBF72EFF41
:1049B000A66A4FF44870B6F5487FC4F82480A06218
:1049C00000F30885504640210022FBF71FFF5046A8
:1049D00020210022FBF71AFFB6F5487F41F0A8809E
:1049E000504620210122FBF711FF4FF47A70FBF7AC
:1049F000EBFD40F2BC10C2F200000068BE21416332
:104A00004FF4FA60FBF7E0FDA66A4FF4C870B6F504
:104A1000C87FA06200F3EC84504640210022FBF7DF
:104A2000F5FE504620210022FBF7F0FEB6F5C87FC8
:104A300041F0B880504620210122FBF7E7FE666A6C
:104A40004FF49660B6F5966F606200F3DF845046CF
:104A500008210122FBF7DAFE58464FF400410022FC
:104A6000FBF7D4FEB6F5966F41F0D68058464FF46A
:104A700000410122FBF7CAFE58464FF48051FBF774
:104A8000BFFE002800F00C82504640210122FBF7B7
:104A9000BDFE504620210022FBF7B8FE5046802183
:104AA0000122FBF7B3FE2868C0F82480416A090997
:104AB0007C290BD8416A09097C2907D8416A090970
:104AC0007C2903D8416AB1F5FA6FEFD350468021B3
:104AD0000022FBF79BFE2868C0F82480416A090980
:104AE0007C29C9D8416A09097C29C5D8416A0909C4
:104AF0007C29C1D8416AB1F5FA6FEFD3BCE700BF9A
:104B000058464FF400410122FBF780FEA66A4FF49D
:104B10004870B6F5487FC4F82480A06200F386840C
:104B2000504640210022FBF771FE50462021002212
:104B3000FBF76CFEB6F5487F41F0AA805046202175
:104B40000122FBF763FE4FF47A70FBF73DFD40F264
:104B5000BC10C2F200000068BE2141634FF4FA604D
:104B6000FBF732FD58464FF48051FBF749FE002811
:104B700000F09681504640210122FBF747FE504647
:104B800020210022FBF742FE504680210122FBF744
:104B90003DFE2868C0F82480416A09097C290BD8A9
:104BA000416A09097C2907D8416A09097C2903D887
:104BB000416AB1F5FA6FEFD3504680210022FBF72E
:104BC00025FE2868C0F82480416A09097C29C9D8D3
:104BD000416A09097C29C5D8416A09097C29C1D8DB
:104BE000416AB1F5FA6FEFD3BCE700BF58464FF406
:104BF00000410122FBF70AFEA66A4FF44870B6F5A1
:104C0000487FC4F82480A06200F31E8450464021EF
:104C10000022FBF7FBFD504620210022FBF7F6FDAA
:104C2000B6F5487F41F06E80504620210122FBF707
:104C3000EDFD4FF47A70FBF7C7FC40F2BC10C2F2F6
:104C400000000068BE2141634FF4FA60FBF7BCFC32
:104C5000A66A4FF4C870B6F5C87FA06200F302845C
:104C6000504640210022FBF7D1FD50462021002272
:104C7000FBF7CCFDB6F5C87F41F07E805046202181
:104C80000122FBF7C3FD666A4FF41670B6F5167F76
:104C9000606200F3F583504608210122FBF7B6FD60
:104CA00058464FF400410022FBF7B0FDB6F5167FE1
:104CB00041F09C8058464FF400410122FBF7A6FDCD
:104CC00058464FF48051FBF79BFD002800F0E88028
:104CD000504640210122FBF799FD50462021002239
:104CE000FBF794FD504680210122FBF78FFD2868D9
:104CF000C0F82480416A09097C290BD8416A090956
:104D00007C2907D8416A09097C2903D8416AB1F591
:104D1000FA6FEFD3504680210022FBF777FD286819
:104D2000C0F82480416A09097C29C9D8416A090967
:104D30007C29C5D8416A09097C29C1D8416AB1F5E5
:104D4000FA6FEFD3BCE700BF58464FF40041012291
:104D5000FBF75CFDA66A4FF44870B6F5487FC4F8CF
:104D60002480A06200F39C83504640210022FBF780
:104D70004DFD504620210022FBF748FDB6F5487F47
:104D800041F07080504620210122FBF73FFD4FF497
:104D90007A70FBF719FC40F2BC10C2F20000006808
:104DA000BE2141634FF4FA60FBF70EFCA66A4FF494
:104DB000C870B6F5C87FA06200F3808350464021DA
:104DC0000022FBF723FD504620210022FBF71EFDA9
:104DD000B6F5C87F41F08080504620210122FBF7C4
:104DE00015FD666A4FF49660B6F5966F606200F343
:104DF0007383504608210122FBF708FD58464FF403
:104E000000410022FBF702FDB6F5966F41F09E804F
:104E100058464FF400410122FBF7F8FC58464FF486
:104E20008051FBF7EDFCD8B3504640210122FBF73F
:104E3000EDFC504620210022FBF7E8FC5046802183
:104E40000122FBF7E3FC2868C0F82480416A0909C5
:104E50007C290BD8416A09097C2907D8416A0909CC
:104E60007C2903D8416AB1F5FA6FEFD3504680210F
:104E70000022FBF7CBFC2868C0F82480416A0909AE
:104E80007C29CBD8416A09097C29C7D8416A09091C
:104E90007C29C3D8416AB1F5FA6FEFD3BEE700BFF2
:104EA000504620210122FBF7B1FC4FF47A70C4F880
:104EB0002880FBF789FB40F2BC10C2F200000068BA
:104EC000872141634FF4FA60FBF77EFB84F8028090
:104ED00004F1310626203146FDF7B6FFE07030467A
:104EE000FDF738FED4F8311040F20007E16294F883
:104EF0003110C2F20007E07094F8350094F8326087
:104F000094F8333094F83420D7F800C0132984F88B
:104F1000300008BFDD2E2BD0632908BFF02E37D01C
:104F2000632908BFA32E43D0532908BF162E4FD0A4
:104F3000132908BFD32E5BD0032908BF742E67D076
:104F4000832908BFD32E7EF484AD3B2B7EF481AD44
:104F5000FB2A7EF47EAD90287EF47BADBCF1060F7B
:104F60003EF477AD2146362001F8020F062061E0BD
:104F7000C92BD1D10C2ACFD10B28CDD1BCF1000F38
:104F8000CAD02146302001F8020FC7F8008052E055
:104F90008A2BC5D1352AC3D12C28C1D1BCF1010F30
:104FA000BED02146312001F8020F012042E000BFAF
:104FB0002A2BB9D1FB2AB7D11128B5D1BCF1020FE8
:104FC000B2D02146322001F8020F022032E000BFA9
:104FD000362BADD1FB2AABD18828A9D1BCF1030F68
:104FE000A6D02146332001F8020F032022E000BFA3
:104FF000382BA1D1FB2A9FD103289DD1BCF1040FEE
:105000003FF49AAF2146342001F8020F042011E04A
:105010001D2B7FF495AFFB2A7FF492AF91287FF48C
:105020008FAFBCF1050F3FF48BAF2146352001F85F
:10503000020F0520386040F24C20C2F2000001222D
:105040006423FDF747FCFEF704BD00BF052940F0CF
:105050005382632800F3508240F20007C2F2000737
:10506000B968002940F00F814FF47A70FBF7ACFA71
:1050700040F2BC16C2F200063068872141634FF44B
:10508000FA60FBF7A1FA606AC0F5167054E200BF3F
:10509000504608210022A6F51676FBF7B7FB5846C6
:1050A0004FF400410022FBF7B1FB65E2504620219E
:1050B0000122FBF7ABFB00264FF47A70A662FBF7E8
:1050C00083FA40F2BC10C2F200000068BE214163C6
:1050D0004FF4FA60FBF778FAA06A402100F5C87037
:1050E000A06250460022FBF791FB5046202100228F
:1050F000FBF78CFB04E000BF0136B6F5C87F3FD05C
:10510000504680210122FBF781FB2868C0F82480EB
:10511000416A09097C290BD8416A09097C2907D809
:10512000416A09097C2903D8416AB1F5FA6FEFD3C6
:10513000504680210022FBF769FB2868C0F82480D4
:10514000416A09097C29D7D8416A09097C29D3D841
:10515000416A09097C29CFD8416AB1F5FA6FEFD3CA
:10516000CAE700BF504608210022A6F54876FBF7A3
:105170004DFB58464FF400410022FBF747FB47E246
:10518000504620210122FBF741FB666A4FF448702C
:10519000B6F5487F606200F375825046082101220F
:1051A000FBF734FB58464FF400410022FBF72EFB7F
:1051B000B6F5487F40F0428758464FF4004101223F
:1051C000FBF724FBA06A402100F5C870A06250469E
:1051D00000220026FBF71AFB504620210022FBF795
:1051E00015FB03E00136B6F5C87F31D0504680216B
:1051F0000122FBF70BFB2868C0F82480416A0909EB
:105200007C290BD8416A09097C2907D8416A090918
:105210007C2903D8416AB1F5FA6FEFD3504680215B
:105220000022FBF7F3FA2868C0F82480416A0909D4
:105230007C29D7D8416A09097C29D3D8416A090950
:105240007C29CFD8416AB1F5FA6FEFD3CAE700BF26
:10525000504620210122FBF7D9FA4FF47A70FBF770
:10526000B3F940F2BC10C2F200000068872141632C
:105270004FF4FA60FBF7A8F940F20007C2F200070A
:1052800078680121B960013078605046022100221F
:10529000FBF7BCFA50464FF480610122FBF7B6FAE7
:1052A000012060705020C9F800003220FBF78CF913
:1052B000786864287EF4CDABFEF7C0BB5046402131
:1052C0000122A6F5C876FBF7A1FA5046202100225C
:1052D000FBF79CFAE8E100BF504640210122A6F509
:1052E000C876FBF793FA504620210022FBF78EFA8E
:1052F00014E200BF504640210122A6F5C876FBF714
:1053000085FA504620210022FBF780FA40E200BFD8
:10531000504640210122A6F5C876FBF777FA5046A1
:1053200020210022FBF772FA6CE200BF50464021B8
:105330000122A6F5C876FBF769FA50462021002223
:10534000FBF764FA98E200BF504640210122A6F51F
:10535000C876FBF75BFA504620210022FBF756FA8D
:10536000C4E200BF504640210122A6F54876FBF773
:105370004DFA504620210022FBF748FAF0E200BF28
:10538000504640210122A6F54876FBF73FFA5046E9
:1053900020210022FBF73AFA1CE300BF50464021CF
:1053A0000122A6F5C876FBF731FA504620210022EB
:1053B000FBF72CFA48E300BF504608210022A6F56F
:1053C0001676FBF723FA58464FF400410022FBF70C
:1053D0001DFA73E3504640210122A6F54876FBF7FB
:1053E00015FA504620210022FBF710FAA2E300BF75
:1053F000504640210122A6F5C876FBF707FA504631
:1054000020210022FBF702FACEE300BF504608211C
:105410000022A6F59666FBF7F9F958464FF40041CD
:105420000022FBF7F3F900F0F9BB00BF5046402122
:105430000122A6F54876FBF7E9F950462021002223
:10544000FBF7E4F900F026BC504640210122A6F506
:105450004876FBF7DBF9504620210022FBF7D6F90E
:1054600000F052BC504640210122A6F5C876FBF759
:10547000CDF9504620210022FBF7C8F900F07EBC90
:10548000504608210022A6F51676FBF7BFF95846CC
:105490004FF400410022FBF7B9F900F0A9BC00BFAE
:1054A000504640210122A6F54876FBF7AFF9504659
:1054B00020210022FBF7AAF900F0D6BC504640217B
:1054C0000122A6F5C876FBF7A1F95046202100225B
:1054D000FBF79CF900F002BD504608210022A6F51A
:1054E0009666FBF793F958464FF400410022FBF70C
:1054F0008DF900F02DBD00BF40F200070629C2F271
:1055000000077FF4D5AE63283FF7D2AEB968002913
:105510007FF4B9AE4FF47A70FBF756F840F2BC1640
:10552000C2F200063068872141634FF4FA60FBF74E
:105530004BF8606AC0F5966000F0BCFDFAF760FFBA
:105540004FF47A70FBF740F83068BE2141634FF4A6
:10555000FA60FBF739F84FF4C87000F01BFE606A80
:10556000C0F5487000F0A6FD4FF4C87000F012FEC0
:1055700073E600BFC6F51676002703E00137B74291
:105580003EF4BCAB50464FF480710122FBF73EF96C
:105590002868C0F82480416A09097C290BD8416A2F
:1055A00009097C2907D8416A09097C2903D8416A7D
:1055B000B1F5FA6FEFD350464FF480710022FBF73C
:1055C00025F92868C0F82480416A09097C29D5D8C2
:1055D000416A09097C29D1D8416A09097C29CDD8B9
:1055E000416AB1F5FA6FEFD3C8E700BF5046082112
:1055F0000022A6F59666FBF709F958464FF40041DC
:105600000022FBF703F900F0DFBC00BFC6F54876C7
:10561000002703E00137B7423EF424AE50464FF472
:1056200080710122FBF7F2F82868C0F82480416AF3
:1056300009097C290BD8416A09097C2907D8416AE4
:1056400009097C2903D8416AB1F5FA6FEFD35046B6
:105650004FF480710022FBF7D9F82868C0F8248045
:10566000416A09097C29D5D8416A09097C29D1D820
:10567000416A09097C29CDD8416AB1F5FA6FEFD3A7
:10568000C8E700BF504608210022A6F54876FBF780
:10569000BDF858464FF400410022FBF7B7F800F080
:1056A000CFBC00BFC6F5C876002703E00137B7427C
:1056B0003EF4A7AA504680210122FBF7A7F82868EC
:1056C000C0F82480416A09097C290BD8416A09097C
:1056D0007C2907D8416A09097C2903D8416AB1F5B8
:1056E000FA6FEFD3504680210022FBF78FF828682D
:1056F000C0F82480416A09097C29D7D8416A090980
:105700007C29D3D8416A09097C29CFD8416AB1F5EF
:10571000FA6FEFD3CAE700BFC6F5C876002703E0EB
:105720000137B7423EF40FAE504680210122FBF70D
:105730006DF82868C0F82480416A09097C290BD8D3
:10574000416A09097C2907D8416A09097C2903D8DB
:10575000416AB1F5FA6FEFD3504680210022FBF782
:1057600055F82868C0F82480416A09097C29D7D8EF
:10577000416A09097C29D3D8416A09097C29CFD813
:10578000416AB1F5FA6FEFD3CAE700BFC6F5C87634
:10579000002703E00137B7423EF445AE5046802172
:1057A0000122FBF733F82868C0F82480416A090910
:1057B0007C290BD8416A09097C2907D8416A090963
:1057C0007C2903D8416AB1F5FA6FEFD350468021A6
:1057D0000022FBF71BF82868C0F82480416A0909F9
:1057E0007C29D7D8416A09097C29D3D8416A09099B
:1057F0007C29CFD8416AB1F5FA6FEFD3CAE700BF71
:10580000C6F5C876002703E00137B7423EF47BAE09
:10581000504680210122FAF7F9FF2868C0F8248059
:10582000416A09097C290BD8416A09097C2907D8F2
:10583000416A09097C2903D8416AB1F5FA6FEFD3AF
:10584000504680210022FAF7E1FF2868C0F8248042
:10585000416A09097C29D7D8416A09097C29D3D82A
:10586000416A09097C29CFD8416AB1F5FA6FEFD3B3
:10587000CAE700BFC6F5C876002703E00137B74284
:105880003EF4B1AE504680210122FAF7BFFF2868EE
:10589000C0F82480416A09097C290BD8416A0909AA
:1058A0007C2907D8416A09097C2903D8416AB1F5E6
:1058B000FA6FEFD3504680210022FAF7A7FF28683D
:1058C000C0F82480416A09097C29D7D8416A0909AE
:1058D0007C29D3D8416A09097C29CFD8416AB1F51E
:1058E000FA6FEFD3CAE700BFC6F5C876002703E01A
:1058F0000137B7423EF4E7AE504680210122FAF765
:1059000085FF2868C0F82480416A09097C290BD8E2
:10591000416A09097C2907D8416A09097C2903D809
:10592000416AB1F5FA6FEFD3504680210022FAF7B1
:105930006DFF2868C0F82480416A09097C29D7D8FE
:10594000416A09097C29D3D8416A09097C29CFD841
:10595000416AB1F5FA6FEFD3CAE700BFC6F54876E2
:10596000002703E00137B7423EF416AF50468021CE
:105970000122FAF74BFF2868C0F82480416A090920
:105980007C290BD8416A09097C2907D8416A090991
:105990007C2903D8416AB1F5FA6FEFD350468021D4
:1059A0000022FAF733FF2868C0F82480416A090909
:1059B0007C29D7D8416A09097C29D3D8416A0909C9
:1059C0007C29CFD8416AB1F5FA6FEFD3CAE700BF9F
:1059D000C6F54876002703E00137B7423EF452AFE0
:1059E000504680210122FAF711FF2868C0F8248070
:1059F000416A09097C290BD8416A09097C2907D821
:105A0000416A09097C2903D8416AB1F5FA6FEFD3DD
:105A1000504680210022FAF7F9FE2868C0F8248059
:105A2000416A09097C29D7D8416A09097C29D3D858
:105A3000416A09097C29CFD8416AB1F5FA6FEFD3E1
:105A4000CAE700BFC6F5C876002703E00137B742B2
:105A50003EF442AF504680210122FAF7D7FE286873
:105A6000C0F82480416A09097C290BD8416A0909D8
:105A70007C2907D8416A09097C2903D8416AB1F514
:105A8000FA6FEFD3504680210022FAF7BFFE286854
:105A9000C0F82480416A09097C29D7D8416A0909DC
:105AA0007C29D3D8416A09097C29CFD8416AB1F54C
:105AB000FA6FEFD3CAE700BFC6F51676002703E0FA
:105AC0000137B7423EF424AF50464FF480710122B3
:105AD000FAF79CFE2868C0F82480416A09097C29ED
